:100000000C94CC010C9413020C9413020C94130264
:100010000C9413020C9413020C9413020C9413020C
:100020000C9413020C9413020C94221C0C94F51CD7
:100030000C9437130C9413020C9413020C941302B7
:100040000C9413020C9413020C9413020C941302DC
:100050000C9413020C9498130C9413020C94130236
:100060000C9413020C9413020C9413020C941302BC
:100070000C9413020C9413020C9413020C941302AC
:100080000C9413020C9413020C9413020C9413029C
:100090000C9413020C9413020C9413020C9413028C
:1000A0000C9413020C9413020C9413024B004E0098
:1000B000060019002800E000E20000004C00015199
:1000C000A900AA00AE00AD002C0001000100000054
:1000D0000100010001000100010001000100010018
:1000E0000100000001000100010001000100010009
:1000F00001000100010000000100010001000100F9
:1001000001000100010001000100000001000100E8
:1001100001000100010001000100010001000000D8
:1001200001000100010001000100010001000100C7
:1001300001000000010001000100010001000100B8
:1001400001000100010000000100010001000100A8
:100150000100010001000100010000000100010098
:100160000100010001000100010001000100000088
:100170000100010001000100010001000100010077
:100180000100000001000100010001000100010068
:100190000100010001000000010001000100010058
:1001A0000100010001000100010000000100010048
:1001B0000100010001000100010001000100000038
:1001C0000100010001000100010001000100010027
:1001D0000100000001000100010001000100010018
:1001E00001000100010000000100010012036B008A
:1001F0006500790062006F00610072006400000019
:10020000160371006D006B006200750069006C00E0
:1002100064006500720000000403090409026D0017
:10022000040100A0FA0904000001030101000921F2
:10023000110100012240000705810308000A09049A
:1002400001000103010200092111010001224D00FA
:100250000705820308000A090402000103000000E8
:100260000921110100012236000705830308000A55
:10027000090403000103000000092111010001220B
:10028000390007058403200001120110010000005D
:1002900008EDFE606001000102000105010906A1F0
:1002A00001050719E029E715002501950875018169
:1002B0000205081901290595057501910295017539
:1002C0000391010507190029F71500250195F87517
:1002D000018102C005010980A101850216010026E5
:1002E00003001A81002A8300751095018100C00562
:1002F0000C0901A1018503160100269C021A0100C8
:100300002A9C02751095018100C005010902A10116
:100310000901A10005091901290515002501950507
:1003200075018102950175038101050109300931CB
:100330001581257F95027508810609381581257F6D
:10034000950175088106050C0A38021581257F95EF
:100350000175088106C0C005010906A1010507193C
:10036000E029E715002501950875018102950175C1
:100370000881010508190129059505750191029566
:1003800001750391010507190029FF150026FF00DB
:10039000950675088100C00011241FBECFEFDAE07A
:1003A000DEBFCDBF04B603FE27C08091000290914E
:1003B0000102A0910202B09103028730904BA74046
:1003C000B04BD1F41092000210920102109202027E
:1003D0001092030214BE84B7877F84BF0FB6F894CF
:1003E000A895809160008861809360001092600001
:1003F0000FBEE0E0F8E3099511E0A0E0B1E0E4EC25
:10040000F0E402C005900D92AE32B107D9F722E0B8
:10041000AEE2B1E001C01D92A030B207E1F70E9448
:1004200078190C9434200C94000090E080E008953A
:100430000895089581E00895089581E008950C9449
:100440001A020E94850B2FEF84E39CE0215080402C
:100450009040E1F700C000000C94BB13EF92FF92B4
:100460000F931F93CF93DF938C01FC01E080F18009
:1004700080915001811140C082818823C1F1C70160
:100480000E940C11C82F682FC7010E94B310B7013A
:100490008C2F0E946603EC01B8010E941F02882382
:1004A00009F44BC0B801CE010E946F05882309F4FE
:1004B00044C0C531F0E7DF0720F5C23080E7D80738
:1004C00008F04DC0C115E0E7DE0791F1C130D0471B
:1004D000E1F181E08093300180933101C801DF9127
:1004E000CF911F910F91FF90EF900C941D02C701C7
:1004F0000E94E210C82FCBCFC7010E940C11B70198
:10050000C8CFCC3380E7D80709F49BC0CD33D047A0
:1005100001F7F8018281882309F4BAC010923101F1
:100520000E94671390932F0180932E0180E296C062
:10053000F801828181110E94210280E0DF91CF9138
:100540001F910F91FF90EF900895F8018281882309
:10055000A1F38091C00181608093C001EECFF801CA
:100560008281882309F4BACF0E94C712811102C088
:100570000E94AD120E94E41290E09093F2018093E9
:10058000F101FE01E350F0478091F1018160E23119
:10059000F10538F4EA5CFF4D0C94E41F8091F10101
:1005A00082608093F1018091F1010E94E8120E9423
:1005B000850BC3CF8091F1018460F3CF8091F1016D
:1005C0008860EFCF8091F1018061EBCF8091F101E4
:1005D0008062E7CF8091F1018064E3CF8091F101E7
:1005E0008068DFCF8091F1018C60DBCF8091F101D9
:1005F0008E7FD7CF8091F1018D7FD3CF8091F10194
:100600008B7FCFCF8091F101877FCBCF8091F1019C
:100610008F7EC7CF8091F1018F7DC3CF8091F10193
:100620008F7BBFCF8091F1018F77BBCF8091F1019C
:10063000837FB7CF9091F101892F97FB87F980587D
:10064000B0CFF8018281882361F0109230010E94BE
:10065000671390932F0180932E0182E00E94EA0895
:100660006CCF8091300181110FC080912E0190914B
:100670002F010E947313883C910530F486E20E949A
:10068000BF0786E20E949B0882E00E94F10855CFD6
:100690008091310181110FC080912E0190912F0125
:1006A0000E947313883C910530F487E20E94BF07D3
:1006B00087E20E949B0880E2E8CF0C94BE050C9470
:1006C000C0050C941C020C9461030895972F70E0F0
:1006D00025E0929F600D711D1124FB019AE0899F16
:1006E000E00DF11D1124EE0FFF1FE455FF4F859122
:1006F00094910895FC01EE0FFF1FE451FE4F859188
:10070000949108950E9466030E94F3049C01811550
:1007100040E4940708F097C0211580E3380708F0FB
:10072000FAC0203E310508F074C0203C310508F0C5
:10073000E5C0283A310588F4253A310508F0E2C0D1
:100740002130310509F477C0C9010497813A910538
:1007500008F471C030E020E06EC0C901885A9109E8
:100760004597C0F7283A310509F4FEC0293A31050A
:1007700009F4FDC02A3A310509F4FCC02B3A3105D1
:1007800009F4FBC02C3A310509F4FAC02B3B3105C2
:1007900009F4F9C02C3B310509F4F8C02D3A3105B4
:1007A00009F4F7C0203B310509F4F6C02E3A3105B3
:1007B00009F4F5C02F3A310509F4F4C0213B3105A5
:1007C00009F4F3C0223B310509F4F2C0233B3105A3
:1007D00009F4F1C0243B310509F4F0C0253B310593
:1007E00009F4EFC0263B310509F4EEC0273B310583
:1007F00009F4EDC0283B310509F4ECC0293B310573
:1008000009F4EBC02A3B310509F4EAC020E034E4E6
:1008100012C0211590E2390780F42F3F310509F00D
:1008200050F4283E310538F0C901805F91093065E8
:10083000409708F08FCFC9010895C9019F700E94A9
:100840007A039C01F8CF8115944508F041C0211529
:1008500083E5380708F06AC0211592E5390738F5B5
:10086000211541E5340708F05CC0211580E5380703
:1008700008F454C0C90134E0969587953A95E1F79C
:100880008370422F46954695437090E2499FA001A0
:100890001124582B822F837021E030E002C0220FF8
:1008A000331F8A95E2F7242B352B3C68C4CFC9014E
:1008B0008370992741E050E002C0440F551F8A958C
:1008C000E2F72695269580E2289F90011124EBCF30
:1008D000211596E5390748F4922F882721153545CB
:1008E000C8F59C01246F306AA6CFC90190563F70AD
:1008F0008115904108F02ECF30629DCFC901805CF8
:1009000091099DCF253A310549F1263A310549F53E
:1009100022E830E490CF3327306C8DCF3F70306ABF
:100920008ACF322F2227216F306A85CFC901837089
:10093000992741E050E002C0440F551F8A95E2F725
:100940002695269580E2289F90011124242B352B93
:100950003A6871CF88279F719C01CECF21E830E49F
:100960006ACF23E830E467CF22EE34E464CF29EE87
:1009700034E461CF2AEE34E45ECF25EB34E45BCF80
:1009800026EB34E458CF23EB34E455CF24EB34E4A6
:1009900052CF27EB34E44FCF2CEC34E44CCF2DEC8A
:1009A00034E449CF23E835E446CF2AE835E443CFA1
:1009B00022E935E440CF24E935E43DCF21E236E4B5
:1009C0003ACF23E236E437CF24E236E434CF25E2CF
:1009D00036E431CF26E236E42ECF27E236E42BCFC1
:1009E0002AE236E428CF803E910581F1C8F48133B4
:1009F000910509F462C048F48932910509F456C0A2
:100A00008A32910509F460C0089589339105B9F0DF
:100A100082389105A1F08533910509F440C008950D
:100A2000863E910561F138F4823E9105B1F0833E36
:100A30009105E1F00895873E910551F108952091C7
:100A4000F1012370D9F080EE90E008952091F1013A
:100A500020FF14C089E390E008952091F10122FF66
:100A60000DC024FD09C083EE90E008952091F101AE
:100A700022FD31C024FF02C090E080E00895209163
:100A8000F10123FFFBCF24FDF7CF87EE90E008951F
:100A90002091F10123FFEECF86EE90E008952091A2
:100AA000F10125FFEBCF89E290E008952091F1015B
:100AB00025FFE4CF85E390E008952091F10126FF22
:100AC000DDCF8AE290E008952091F10126FFD6CF94
:100AD00081E390E0089582EE90E0089508950F93E9
:100AE0001F93CF938C01FB018281811106C0C1E06D
:100AF0008C2FCF911F910F910895C0913F01C1118B
:100B000025C00531104799F70E946E0581E080935A
:100B10003F010E94671390933E0180933D01109224
:100B2000320110923401109233011092360110926A
:100B30003501109238011092370110923A0110924B
:100B4000390110923C0110923B01D2CF80913D01BE
:100B500090913E010E947313883C910540F680916C
:100B60003201E82FF0E0EE0FFF1FED5CFE4F118326
:100B700000838F5F80933201C0E0BACF0C941802DB
:100B80000C941902CF93DF9385B7806885BF85B732
:100B9000806885BF8098889A8198899AA3E1B1E09E
:100BA00048E151E0C1E0D0E08D91E82FE295EF708F
:100BB000F0E061A18F709E0101C0220F8A95EAF7D3
:100BC000922F9095962391A382A1822B82A34A17FC
:100BD0005B0751F7109242011092400110924301BD
:100BE00010924101DF91CF910C945D036F927F923F
:100BF0008F929F92AF92BF92CF92DF92EF92FF922D
:100C00000F931F93CF93DF9330E4632E31E0732E65
:100C100048E1E42E41E0F42E01E010E0DD24D3941D
:100C2000E301C9903E01DE011E92F70181917F012F
:100C3000E82FE295EF70F0E091A18F70A80101C05C
:100C4000440F8A95EAF7892F842B81A382A1842EF1
:100C50008094882182A380EA8A95F1F763E171E0AC
:100C600090E080E0EB013991BE01A32EA2942FE029
:100C7000A222B12CE50128A19C903F70580101C02F
:100C8000AA0C3A95EAF7A22220E031F4202F082E90
:100C900001C0220F0A94EAF729292C930196853086
:100CA000910501F781A1882181A382A1482B42A34C
:100CB0008C91C81641F0D09244010E946713909322
:100CC000460180934501D2E46D16D1E07D0609F01E
:100CD000A7CF80914401882391F0809145019091A4
:100CE00046010E947313069750F080914001809353
:100CF00042018091410180934301109244010E947E
:100D00005F0381E0DF91CF911F910F91FF90EF90F2
:100D1000DF90CF90BF90AF909F908F907F906F901B
:100D20000895E82FF0E0EE5BFE4F8081089508956E
:100D300090934C0180934B010895E0914B01F09109
:100D40004C01309721F00190F081E02D099480E072
:100D50000895E0914B01F0914C01309721F0028011
:100D6000F381E02D09940895E0914B01F0914C013D
:100D7000309721F00480F581E02D099408952091A9
:100D8000490130914A012817390771F090934A01BF
:100D900080934901E0914B01F0914C01309721F093
:100DA0000680F781E02D0994089520914701309144
:100DB00048012817390771F0909348018093470143
:100DC000E0914B01F0914C01309721F00084F185C6
:100DD000E02D0994089508950C94EB060E945E138B
:100DE0000E94C2050C942014BF92CF92DF92EF9222
:100DF000FF920F931F93CF93DF9300D000D00F92F9
:100E0000CDB7DEB70E94F6058EE4C82E81E0D82E5D
:100E100010E000E0E02E802F0E949106B82EF6012F
:100E2000F1906F01F81609F45EC08091C00181FD58
:100E30000E94970630E020E0FB244F2D50E0922FD7
:100E4000BA01022E02C0759567950A94E2F760FF19
:100E500044C02983EA8221E030E0790102C0EE0C2F
:100E6000FF1C9A95E2F72B2D30E02E213F2181E0E7
:100E7000232B09F480E08B830E9467138160782F15
:100E80009D838C8349815A816B818D810E94960755
:100E9000F801E25BFE4F80818E2580830E94CD1693
:100EA0000E949D0690914D01891789F10E949D062F
:100EB00080934D010F900F900F900F900F90DF9146
:100EC000CF911F910F91FF90EF90DF90CF90BF9047
:100ED0000C94630301E010E09DCF2F5F3F4F25305E
:100EE000310509F0ACCF01301105A1F78FEF8983EF
:100EF0008A831B820E9467138160782F9D838C8375
:100F000049815A816B818D810E949607C7CF0F90CE
:100F10000F900F900F900F90DF91CF911F910F9135
:100F2000FF90EF90DF90CF90BF900895CF93DF9325
:100F3000CDB7DEB72B970FB6F894DEBF0FBECDBF8F
:100F40004F83588769877A878B871E8285E0FE01E9
:100F50003796DE01119601900D928A95E1F749814D
:100F60005A816B817C818D819E812B960FB6F8947E
:100F7000DEBF0FBECDBFDF91CF910C940D0E882345
:100F800009F4D8C0823871F40E949D0681FDD2C058
:100F900089E30E94B4110E947E1289E30E94F1113C
:100FA0000C947E12833859F40E949D0680FDC2C0C5
:100FB00083E50E94B4110E947E1283E5EFCF84384E
:100FC00059F40E949D0682FDB5C087E40E94B411C9
:100FD0000E947E1287E4E2CF9CEF980F913A18F4BA
:100FE0000E94B411DDCF90E2980F983050F48770D2
:100FF00091E001C0990F8A95EAF7892F0E94351276
:10100000CFCF9BE5980F933070F4853A31F0863A54
:1010100039F083E890E00C94BF0681E890E0FBCFC4
:1010200082E890E0F8CF98E5980F953108F082C0FB
:10103000883A09F440C0893A09F440C08A3A09F470
:1010400040C08B3A09F440C08C3A09F440C08B3B55
:1010500009F440C08C3B09F440C08D3A09F440C00B
:10106000803B09F440C08E3A09F440C08F3A09F43D
:1010700040C0813B09F440C0823B09F440C0833B3F
:1010800009F440C0843B09F440C0853B09F440C0EA
:10109000863B09F440C0873B09F440C0883B09F413
:1010A00040C0893B09F440C08A3B09F440C090E04D
:1010B00080E00C94D50682EE90E0FBCF89EE90E0C4
:1010C000F8CF8AEE90E0F5CF85EB90E0F2CF86EB9B
:1010D00090E0EFCF83EB90E0ECCF84EB90E0E9CFB2
:1010E00087EB90E0E6CF8CEC90E0E3CF8DEC90E0E6
:1010F000E0CF83E891E0DDCF8AE891E0DACF82E9C2
:1011000091E0D7CF84E991E0D4CF81E292E0D1CFD2
:1011100083E292E0CECF84E292E0CBCF85E292E010
:10112000C8CF86E292E0C5CF87E292E0C2CF8AE2E2
:1011300092E0BFCF0895882309F44BC0823871F440
:101140000E949D0681FF45C089E30E94B4110E9460
:101150007E1289E30E94F1110C947E12833859F4B7
:101160000E949D0680FF35C083E50E94B4110E9455
:101170007E1283E5EFCF843859F40E949D0682FFEA
:1011800028C087E40E94B4110E947E1287E4E2CF57
:101190009CEF980F913AF0F290E2980F983050F44B
:1011A000877091E001C0990F8A95EAF7892F0E9414
:1011B0003B12D2CF9BE5980F933020F490E080E073
:1011C0000C94BF06885A853120F490E080E00C949E
:1011D000D5060895882321F00E9435120C947E12C2
:1011E0000895882321F00E943B120C947E120895EA
:1011F0008F929F92AF92BF92DF92EF92FF920F93E6
:101200001F93CF93DF9300D000D00F92CDB7DEB7FE
:101210007C016D837983FC01058102950F70128139
:1012200011110E9454120E94AD11D82E882371F022
:101230001123A1F08D81805E883080F082E00E94D1
:1012400097110E94AD1191E0D82ED926E981E2953F
:10125000EF70F0E0E85BFF4D0C94E41FD12CF6CF6B
:1012600009810F70F981F07F11F00295007F112341
:10127000B1F0002361F08D81805E883018F02D81FF
:10128000211109C0802F0E9435120E947E128D818B
:101290000E94BF0715C0802F0E944612F6CF8D8195
:1012A0000E949B08002361F08D81805E883018F0D9
:1012B0003D81311129C0802F0E943B120E947E1275
:1012C000DD2009F4D3C10E948A1180FDCFC1F7014E
:1012D00012820E9484110E94CB0FC7010E94470B0B
:1012E0000E9484110F900F900F900F900F90DF913C
:1012F000CF911F910F91FF90EF90DF90BF90AF9033
:101300009F908F900C94ED0F802F0E944C12D6CF9F
:1013100049814F70B42E5981507F503219F0B294E8
:1013200080EFB8228D81882369F0813029F1112363
:1013300069F1002359F0F701858180FFA8CF8F70F4
:10134000858304C0112361F0011104C08B2D0E941C
:10135000EA08B6CF8B2D0130D1F70E946812B0CFCA
:10136000011106C00E946B128B2D0E94F108A8CFBC
:10137000013009F4A5CFF6CF112321F0063008F093
:101380009FCFE4CF053008F09BCFEECF002361F371
:101390008D810E949B0894CF898186958695837064
:1013A00069F0813009F08CCF8D8199819370111192
:1013B00002C090E080E00E94D50682CF8D819981A5
:1013C0009370111102C090E080E00E94BF0678CFB8
:1013D0008D81112329F00E94DB150E94C21670CF67
:1013E0000E944316FACF8981837009F05FC0111102
:1013F00067CF2D81229526952770220F220F8D8190
:101400008F7090E0B0E0A0E04C015D01022E04C0BE
:10141000880C991CAA1CBB1C0A94D2F7FD8160E0C1
:1014200070E0CB01F4FF0FC06FE070E080E090E06F
:1014300004C0660F771F881F991F2A95D2F7609501
:1014400070958095909529812695269523702D83FA
:101450002230B1F0233019F19B01AC012829392940
:101460004A295B2929833A834B835C833D816981C7
:101470007A818B819C813130B1F00E94580F20CF4E
:101480009B01AC01282939294A295B2929833A8300
:101490004B835C83CA01B9010E94820F11CF0E9465
:1014A000580FC501B4010E942E0F0ACF8695112353
:1014B00011F089818170882309F402CF2D81229552
:1014C00026952770220F220F8D818F7090E0B0E05B
:1014D000A0E04C015D01022E04C0880C991CAA1CDE
:1014E000BB1C0A94D2F73D8160E070E0CB0134FF71
:1014F0000FC06FE070E080E090E004C0660F771FDF
:10150000881F991F2A95D2F76095709580959095C0
:1015100049814695469543704D834230B1F0433042
:1015200019F19B01AC01282939294A295B29298312
:101530003A834B835C833D8169817A818B819C8175
:101540003130B1F00E945E10BBCE9B01AC01282966
:1015500039294A295B2929833A834B835C83CA0151
:10156000B9010E948810ACCE0E945E10C501B40182
:101570000E943410A5CE3D81323F09F447C080F46B
:10158000303F79F1313FD9F1832F805E8031D0F047
:10159000112309F456C001117ACE89818F7133C0AD
:1015A0004D81433FD1F1443F99F7112309F43FC0E6
:1015B00089818F7189830E94CB0F63E089810E94AA
:1015C0008E117ECE5D815F705D8389818F71112365
:1015D00021F00E94CB0F8D81BACE0E94ED0F8D813C
:1015E000C4CE112341F0053008F06ACE89818F7195
:1015F0000E94121065CE063008F062CEF7CF8981C6
:101600008F71112339F00E94CB0F5ACE89818F71CF
:101610001123C9F30E94ED0F53CE112329F08981C4
:101620008F710E94B60F4CCE0E94AC0F49CE81E064
:101630000E949711023008F443CE82E00E94971175
:101640003FCE0111A5CE89818F71E4CF49814F70C2
:101650006D81C7010E9415020E94A70E31CE4981FB
:101660004F706D81C7010E9465032ACE0F900F90C5
:101670000F900F900F90DF91CF911F910F91FF90DE
:10168000EF90DF90BF90AF909F908F9008950F9351
:101690001F93CF93DF93EC018B819C81892B29F0E1
:1016A0008881998189238F3F29F4DF91CF911F9100
:1016B0000F910895CE010E942E028823B1F3688114
:1016C00079818A810E945A118C010E94B2100E9475
:1016D000230FB801CE01DF91CF911F910F910C9490
:1016E000F8080E9454120E9465120E9427120E945C
:1016F0007E120E94B3170E94C21690E080E00E9402
:10170000BF0690E080E00C94D5060E9443120C9432
:10171000710B0E944E11282F892F82958F70903C5B
:1017200080F48A30B0F4843020F4823090F480E089
:1017300008958630E1F781E0203E88F0213FB9F737
:101740000EC08C3011F08F3091F793FB882780F911
:10175000089581E0203F39F018F4203E40F70895C5
:10176000243F29F7FCCF0895CF93DF9300D000D01A
:101770000F92CDB7DEB70F900F900F900F900F9094
:10178000DF91CF910895CF93DF9300D000D000D0A8
:10179000CDB7DEB726960FB6F894DEBF0FBECDBF2D
:1017A000DF91CF9108951F93CF93DF93E091510183
:1017B00016E0809152018E1304C0DF91CF911F91EA
:1017C0000895CE2FD0E01E9FF0011124ED5AFE4F58
:1017D0004081518162817381848195810E94C30B14
:1017E000FE013196E770E5CF40918301509184016D
:1017F00060918501709186018091870190918801A7
:101800000C94C30B1F93CF93DF9380918801807F4B
:10181000C1F4809185018823A1F080915101C0918C
:101820005201609183017091840140918601509131
:101830008701D62FD723DA01A095B09516E0C813FB
:1018400004C0DF91CF911F91089590E0411551059B
:1018500011F0DF3F31F401968770F1CF2A0F3B1F63
:1018600017C0189FF001199FF00D1124ED5AFE4F7B
:1018700021812713F0CF20812613EDCF2281211162
:10188000EACF238134812417350740F3241B350B1D
:10189000283C310500F7209188012F7020612093AA
:1018A000880126E0289FF001299FF00D1124E85AB5
:1018B000FE4F80818F708061808383E891E00E9479
:1018C000470BDF91CF911F910C94D30B9F92AF9256
:1018D000BF92CF92DF92EF92FF920F931F93CF931D
:1018E000DF93CDB7DEB72B970FB6F894DEBF0FBEF0
:1018F000CDBF8C0185E0F801DE01179601900D92B5
:101900008A95E1F7D8014C9111965C911197129646
:10191000EC9012978091860190918701009709F4CD
:101920006BC12091830130918401632F62236F3F4B
:1019300009F462C11396CD90DC90909085019920B6
:1019400009F4F8C0C816D90608F43FC0F601E81B30
:10195000F90BCF01FF24F394883C910508F0F12C9A
:1019600083E8A82E81E0B82E80918801982F907F7F
:10197000FF2009F4B7C0911180C0FE2C35132AC096
:10198000241328C0E11026C08F70806180938801E5
:101990000E94F40BC5010E94470B80918801D80179
:1019A00015968C938F2D2B960FB6F894DEBF0FBE35
:1019B000CDBFDF91CF911F910F91FF90EF90DF90FE
:1019C000CF90BF90AF909F900895809590958C0D8B
:1019D0009D1DC0CFCD2829F0842F85238F3F09F08E
:1019E00019C180E0B82FB170DB2EE0915101209138
:1019F000520136E080FD1CC0EE20A1F280918801EA
:101A0000816080938801F12CCDCF8E2F90E03E9F96
:101A1000F0011124ED5AFE4F6181651306C060810B
:101A2000641303C062816E11E7CFFC013196E77049
:101A3000E213EBCF4F8358878F8198850E944E1118
:101A4000292F22952F70903260F0225F2F70223064
:101A500078F49F7051F0F8019581907F31F4D12C8A
:101A60000AC09F7011F08823D1F3805E8830B8F3EC
:101A7000C8010E94470BFD2C95CF351306C02413D7
:101A800004C0D801EE2009F47BC04F8358878F81B2
:101A900098850E94890B882309F4B8C0EE2009F4C8
:101AA000B5C080918801803270F02091830130911F
:101AB00084013A8329831B82DD82CC828E83CE010E
:101AC00001960E94470B86E0F801A3E8B1E001907F
:101AD0000D928A95E1F70E94020C0E94F40BFF24FC
:101AE000F39460CF911113C07C2DDB86CA866E2DD6
:101AF0008B850E94B40B83E891E00E94470B86E03F
:101B0000F50111928A95E9F70E94F40B4BCF35133A
:101B1000BCCF2413BACFE110B8CFD80115968C935F
:101B2000C8010E94470B86E0F50111928A95E9F7FA
:101B3000F92C38CFC816D90688F1B601681B790B85
:101B4000CB01F12C883C910508F047C0FE2CEE201B
:101B500009F45CC0351330C024132EC08091880175
:101B600080FD21C0982F907FF1F0D80115968C93BD
:101B70001597903F39F0982F907F905F8F70892B49
:101B800015968C93C8010E94470B86E0F801A3E8E4
:101B9000B1E001900D928A95E1F7B6CF80959095CE
:101BA0008C0D9D1DCECF86E0F801A3E8B1E0019039
:101BB0000D928A95E1F7F6CE4F8358878F819885ED
:101BC0000E94890B81117FCF809188018160809371
:101BD0008801C8010E94470BE5CE7C2DDB86CA86B2
:101BE0006E2D8B850E94B40B86E0E3E8F1E0DF0107
:101BF0001D928A95E9F788CFEE2041F04F835887F0
:101C00008F8198850E94890B81115DCFC8010E9448
:101C1000470B65CF81E08E25E5CE1F93CF93DF93F1
:101C2000CDB7DEB72C970FB6F894DEBF0FBECDBF91
:101C30004F83588769877A878B879C87CE01079661
:101C40000E94660C882369F08A859B85892B39F070
:101C50004F815885842F85238F3F09F071C016E08E
:101C60005FC086E0FE013796DE01119601900D926D
:101C70008A95E1F78A859B85892B89F388859F81E1
:101C800089238F3F61F32091520130E0C901019611
:101C900087709927409151014817190671F40E94E5
:101CA000850B109252011092510186E0E3E8F1E0B9
:101CB000DF011D928A95E9F7D2CF96E0929FD0017D
:101CC000939FB00D1124AD5ABE4FFE013196019085
:101CD0000D929A95E1F7809352010E94D30BBFCFEA
:101CE000819FC00111248D5A9E4F0E94660C88234B
:101CF000E9F0E09151011E9FF0011124ED5AFE4FD1
:101D00004081518162817381848195810E94C30BDE
:101D10008091510190E0019687709927809351013D
:101D200080915101909152018913DACF2C960FB610
:101D3000F894DEBF0FBECDBFDF91CF911F91089504
:101D400069857A858B859C850E94C30B88CFEF922D
:101D5000FF920F931F93CF93DF938C01892B89F010
:101D6000F12CEE24E394E8012196F8018491843764
:101D700009F457C0A0F4823009F43EC048F4813021
:101D8000D1F0DF91CF911F910F91FF90EF900895C7
:101D90009CEF980F9037A8F70E94BF070AC08537BD
:101DA00009F44CC09CE7980F903758F78F770E9442
:101DB0009B088E0116C00E5F1F4FFE01849190E2BA
:101DC000980F983060F48770FE2D01C0FF0F8A9540
:101DD000EAF78F2F0E9457120E947E1202C00E94C3
:101DE000BF078F2D815008F4BECFEFE9FFE0319798
:101DF000F1F700C00000F6CF0E5F1F4FFE01849187
:101E000090E2980F983050F48770FE2D01C0FF0FBC
:101E10008A95EAF78F2F0E945D12DECF0E949B0801
:101E2000E0CF0E5F1F4FFE01C491C150D0F28FE989
:101E30009FE00197F1F700C00000F7CF0E5F1F4F42
:101E4000FE01F490CECF08956093970170939801AE
:101E50008093990190939A010C94710BCF93DF9327
:101E600000D000D0CDB7DEB769837A838B839C83A3
:101E70008091970190919801A0919901B0919A0158
:101E800029813A814B815C81822B932BA42BB52B2A
:101E90008093970190939801A0939901B0939A0130
:101EA0000F900F900F900F90DF91CF910C94710BCA
:101EB000CF93DF9300D000D0CDB7DEB769837A83AC
:101EC0008B839C838091970190919801A0919901B7
:101ED000B0919A0129813A814B815C8182239323BD
:101EE000A423B5238093970190939801A09399011F
:101EF000B0939A010F900F900F900F90DF91CF91B8
:101F00000C94710BCF93DF9300D000D0CDB7DEB728
:101F100069837A838B839C83809197019091980148
:101F2000A0919901B0919A0129813A814B815C81FC
:101F300082279327A427B527809397019093980130
:101F4000A0939901B0939A010F900F900F900F906A
:101F5000DF91CF910C94710B109293011092940128
:101F600010929501109296010C94710B41E050E093
:101F700060E070E004C0440F551F661F771F8A950C
:101F8000D2F740939301509394016093950170931D
:101F900096010C94710B282F81E090E0A0E0B0E056
:101FA00004C0880F991FAA1FBB1F2A95D2F7409122
:101FB0009301509194016091950170919601842B49
:101FC000952BA62BB72B8093930190939401A0930C
:101FD0009501B09396010C94710B41E050E060E0E4
:101FE00070E004C0440F551F661F771F8A95D2F713
:101FF00040955095609570958091930190919401D2
:10200000A0919501B091960184239523A623B7232F
:102010008093930190939401A0939501B0939601BE
:102020000C94710B282F81E090E0A0E0B0E004C098
:10203000880F991FAA1FBB1F2A95D2F740919301C1
:102040005091940160919501709196018427952794
:10205000A627B7278093930190939401A0939501AD
:10206000B09396010C94710BCF93DF9300D000D006
:10207000CDB7DEB769837A838B839C83809193018C
:1020800090919401A0919501B091960129813A8196
:102090004B815C81822B932BA42BB52B80939301D6
:1020A00090939401A0939501B09396010F900F9097
:1020B0000F900F90DF91CF910C94710BCF93DF9322
:1020C00000D000D0CDB7DEB769837A838B839C8341
:1020D0008091930190919401A0919501B091960106
:1020E00029813A814B815C8182239323A423B523E8
:1020F0008093930190939401A0939501B0939601DE
:102100000F900F900F900F90DF91CF910C94710B67
:10211000CF93DF9300D000D0CDB7DEB769837A8349
:102120008B839C838091930190919401A091950160
:10213000B091960129813A814B815C818227932756
:10214000A427B5278093930190939401A0939501C0
:10215000B09396010F900F900F900F90DF91CF9159
:102160000C94710B0895292F220F220FE22FE90FF3
:10217000E80F8E2F877041E001C0440F8A95EAF77F
:10218000E695E695E69585E0E89FF0011124E7578E
:10219000FE4F30E020E070E05191DF011197CB015C
:1021A000022E02C0969587950A94E2F78170819578
:1021B0008527842385278C932F5F3F4F253031055A
:1021C00059F70895292F220F220FE22FE90FE80F68
:1021D0009E2F9770E695E695E69585E0E89FF001DD
:1021E0001124E757FE4F50E040E080E0219130E0BD
:1021F000092E02C0369527950A94E2F721703327FD
:10220000042E01C0220F0A94EAF7822B4F5F5F4F22
:102210004530510559F70895BF92CF92DF92EF9262
:10222000FF920F931F93CF93DF938C01C090930184
:10223000D0909401E0909501F090960180919701E3
:1022400090919801A0919901B0919A01C82AD92A38
:10225000EA2AFB2ACFE1D0E0BC2ED701C6010C2E22
:1022600004C0B695A795979587950A94D2F780FDF7
:102270000EC0219788F7B12C8B2DDF91CF911F9144
:102280000F91FF90EF90DF90CF90BF900895B8012D
:102290008C2F0E948203019761F3EECFCF93DF93DF
:1022A000D82FC92F0E940C116D2F7C2FDF91CF9159
:1022B0000C9482031F93CF93DF93162FD72F909107
:1022C0005001992339F0862F972FDF91CF911F91DD
:1022D0000C944E11882391F0862F972F0E940C1199
:1022E000C82F682F812F9D2F0E94B310612F7D2F43
:1022F0008C2FDF91CF911F910C948203862F972F03
:102300000E94E210C82FF2CF80919B0185958595A0
:102310008595089580919B018770089598E0899F25
:1023200090011124622B60939B010C94CB0F909130
:102330009B018095892380939B01282F277061F44E
:10234000282F082E000C330B9217130629F08595C1
:10235000859585950C94ED0F089590919B0197704C
:1023600081E009F480E00895909112019923E1F051
:102370009091F10197FF18C0E82FE695E695E69554
:10238000EF3139F12091000130910101E20FF32F7B
:10239000F11D877021E030E001C0220F8A95EAF735
:1023A0008181822B81830895209100013091010168
:1023B000F90132969FEF40E05191851751F09F3F10
:1023C00019F4511101C0942F4F5F4E31A9F79F3F6F
:1023D00009F40895290F311D97FD3A95F90182837B
:1023E000089590911201992301F19091F10197FFC5
:1023F0001CC0E82FE695E695E695EF3139F120917E
:10240000000130910101E20FF32FF11D877021E0EF
:1024100030E0A90102C0440F551F8A95E2F7CA01B6
:1024200080959181892381830895209100013091C5
:102430000101F9013296205E3F4F9191891303C04B
:10244000DF0111971C92E217F307B9F7089581E0B5
:1024500090E0E0910001F0910101E80FF91F108276
:10246000019680329105A9F708959091BF01982BAC
:102470009093BF010895982F90958091BF01892373
:102480008093BF0108951092BF0108959091BE01FD
:10249000982B9093BE010895982F90958091BE013E
:1024A00089238093BE0108951092BE0108959091F2
:1024B000BD01982B9093BD010895982F9095809120
:1024C000BD0189238093BD0108951092BD01089537
:1024D00080939C01089510929C0108952091000121
:1024E00030910101F9013196205E3F4F80E09191DA
:1024F00091118F5FE217F307D1F70895E091000182
:10250000F09101018091BF018083E0910001F09181
:10251000010180819091BE01892B8083E0910001AF
:10252000F091010180819091BD01892B8083909170
:102530009C01992361F0E0910001F09101018081FB
:10254000892B80830E946E12811110929C018091D0
:102550000001909101010C94A9066DEE7EEF90E0D0
:1025600080E00E941E2060E082E090E00E940C204B
:1025700060E083E090E00E940C2060E084E090E066
:102580000E940C2060E085E090E00C940C2090E02C
:1025900080E00E9406209C0181E02D3E3E4F09F024
:1025A00080E0089582E090E00C94FE1F682F82E0A6
:1025B00090E00C940C2083E090E00C94FE1F682FB8
:1025C00083E090E00C940C2084E090E00C94FE1FDB
:1025D000682F84E090E00C940C208091F701843007
:1025E00039F11092C10188E190E020E40FB6F8942F
:1025F000A895809360000FBE2093600080E00E9449
:10260000630383B7817F846083BF83B7816083BFA7
:102610007894889583B78E7F83BF0FB6F894A8957A
:1026200080916000886180936000109260000FBE0E
:102630000895089508950E9419130E94F6050E94B6
:102640001A1380E00E949106811109C081E00E9466
:102650009106982F81E0911103C080E0089581E0F8
:1026600008950E94850B0E949D060C9463031F929F
:102670001FB61F9211248F939F93AF93BF938091A6
:10268000C101811113C08091ED019091EE01A091E3
:10269000EF01B091F0014196A11DB11D8093ED01B4
:1026A0009093EE01A093EF01B093F001BF91AF9131
:1026B0009F918F911F901FBE1F90189582E084BD3F
:1026C00093E095BD9AEF97BD80936E0008952FB764
:1026D000F8948091ED019091EE01A091EF01B091FD
:1026E000F0012FBF0895CF92DF92EF92FF929C01ED
:1026F0004FB7F8948091ED019091EE01A091EF0118
:10270000B091F0014FBF6C017D01EE24FF24A901BF
:1027100070E060E0C416D506E606F70638F0821BC6
:10272000930BFF90EF90DF90CF9008950197F7CF34
:102730001F921FB61F9211248F939F93AF93BF9345
:102740008091ED019091EE01A091EF01B091F00127
:102750000196A11DB11D8093ED019093EE01A09310
:10276000EF01B093F001BF91AF919F918F911F90B6
:102770001FBE1F9018950E94A71BF8942FEF87EAA1
:1027800091E6215080409040E1F700C0000087E0D2
:1027900090EBDC018093000290930102A09302026F
:1027A000B093030288E19CE00FB6F894A89580935B
:1027B00060000FBE90936000FFCFCF92DF92EF9248
:1027C000FF921F93CF93DF9310E0E82EF12C812F1F
:1027D0000E949106D0E0C0E0C82ED12CC6010C2E7C
:1027E00002C0959587950A94E2F780FF13C06C2F7D
:1027F000712F80E00E946603E816F90659F481E023
:10280000DF91CF911F91FF90EF90DF90CF900895CF
:1028100011E0DDCF2196C530D10501F71130C1F7A8
:1028200080E0EECFCF93C82F8CE20E94DD13882387
:1028300021F08C2FCF910C94DD1380E0CF9108957F
:10284000CF93DF9300D000D0CDB7DEB70E94C71280
:10285000811102C00E94AD1295E6998308C00E94C2
:10286000F6058FE39CE90197F1F700C00000A9810C
:10287000A150A983A111F3CF89E20E941214811102
:1028800010C18AE20E94121481110E94AD1285E0EB
:102890000E94121481110E94BB130E94D2128093D5
:1028A000C00187E00E941214882371F08BE10E941E
:1028B0001214882309F4D1C09091C001892F8D7F13
:1028C00091FF82608093C0018091C0010E94D61266
:1028D0000E94E41290E09093F2018093F10180EE67
:1028E0000E941214882341F09091F101892F8E7F6C
:1028F00090FF81608093F10189E30E941214882384
:1029000041F09091F101892F8D7F91FF826080933A
:10291000F10182EE0E941214882341F09091F1019E
:10292000892F8B7F92FF84608093F10186EE0E9455
:102930001214882341F09091F101892F877F93FF32
:1029400088608093F10183EE0E941214882341F085
:102950009091F101892F8F7E94FF80618093F10126
:1029600085E30E941214882341F09091F101892F90
:102970008F7D95FF80628093F10181E30E941214A4
:10298000882341F09091F101892F8F7B96FF80641D
:102990008093F10181E10E941214882341F090910B
:1029A000F101892F97FB87F980588093F10180917D
:1029B000F1010E94E81287E20E94121489838EE1DD
:1029C0000E941214882319F0B981B260B9838FE193
:1029D0000E941214882319F029812460298380E23F
:1029E0000E941214882319F039813860398381E2FA
:1029F0000E941214882319F049814061498382E2C0
:102A00000E941214882319F059815062598383E27D
:102A10000E941214882319F089818064898384E2DA
:102A20000E9412148823B1F1998190689983898159
:102A30000E94DF123981232F30E050E040E02983EB
:102A40003A834B835C83CA01B9010F900F900F90BA
:102A50000F90DF91CF910C94240F8EE00E941214FE
:102A6000882339F09091C001892F8B7F92FF846079
:102A700029CF80E10E9412149091C001882329F08F
:102A8000892F877F93FF88601DCF892F8E7F90FFCE
:102A9000816018CFA981A111CACF0E94DB12282F13
:102AA000CBCF0F900F900F900F90DF91CF910895A3
:102AB0008091C40180FF12C06091050185E0689F8C
:102AC000B001112475956795759567956038710506
:102AD000A8F561157105A1F1862F089581FF09C040
:102AE0006091050185E0689FB00111247595679597
:102AF000EDCF6091050182FD0AC08091C501882358
:102B0000D1F09091040160910501891728F085E0CA
:102B1000689FB0011124DACF869FB001112485E0AF
:102B2000869F9001879F300D1124692F70E0C901A5
:102B30000E94D01FCBCF65E070E0CECF8FE7089525
:102B400081E008958091C40180FF0CC06091030171
:102B500070E075956795759567956115710549F1F3
:102B6000862F089581FF06C06091030170E075957E
:102B70006795F3CF6091030182FD0BC09091C50171
:102B80009923A1F06091020180910301961738F01A
:102B9000682F70E06038710500F38FE70895899F12
:102BA000C001112470E00E94D01FF4CF61E070E0FA
:102BB000D7CF81E00895803F31F40E945815819568
:102BC0008093C8010895813F19F40E945815F8CFE9
:102BD000823F31F40E94581581958093C701089572
:102BE000833F19F40E945815F8CF893F29F40E94B9
:102BF000A2158093C90108958A3F21F40E94A2156D
:102C00008195F7CF8B3F31F40E94A2158195809377
:102C1000CA0108958C3F19F40E94A215F8CF843F91
:102C200031F48091C60181608093C6010895853F8B
:102C300021F48091C6018260F7CF863F21F4809114
:102C4000C6018460F1CF873F21F48091C60188607E
:102C5000EBCF883F21F48091C6018061E5CF8D3FA5
:102C600031F48091C40181608093C40108958E3F46
:102C700021F48091C4018260F7CF8F3FB9F7809132
:102C8000C4018460F1CF9091C701803F41F48091ED
:102C9000C80187FD1092C801992371F00895813F02
:102CA00029F48091C8011816ACF3F6CF823F81F465
:102CB00097FFF2CF1092C7018091C8019091C9018E
:102CC000892B9091CA01892B49F71092C50108956B
:102CD000833F19F4191674F3DFCF893F39F48091DB
:102CE000C9011816CCF61092C901D6CF8A3F29F433
:102CF0008091C90187FFD0CFF6CF8B3F39F4809107
:102D0000CA0187FFC9CF1092CA01C6CF8C3F29F4F0
:102D10008091CA011816BCF3BFCF843F31F4809173
:102D2000C6018E7F8093C601B7CF853F21F4809185
:102D3000C6018D7FF7CF863F21F48091C6018B7F3E
:102D4000F1CF873F21F48091C601877FEBCF883F89
:102D500021F48091C6018F7EE5CF8D3F31F48091C3
:102D6000C4018E7F8093C40197CF8E3F21F4809160
:102D7000C4018D7FF7CF8F3F09F08ECF8091C401C2
:102D80008B7FF0CF86EC91E00E94B4060E9467131F
:102D90009093C3018093C20108951F93CF93DF9353
:102DA00000D000D000D0CDB7DEB78091C2019091A5
:102DB000C3010E947313AC018091C50120910601EB
:102DC00030E0811106C0209107019AE0299F90010F
:102DD00011244217530788F02091C701A091C80120
:102DE000A9831091C901B091CA01BE8321110FC0FE
:102DF0009A2F912B9B2B09F0B2C026960FB6F89410
:102E0000DEBF0FBECDBFDF91CF911F9108958F3FE1
:102E100019F08F5F8093C501121624F40E94581593
:102E20008093C7018091C70187FF05C00E94581594
:102E300081958093C7012981121624F40E945815A8
:102E40008093C8018091C80187FF05C00E94581572
:102E500081958093C8018091C701882309F455C0EA
:102E60003091C8013D83332309F44FC0282F880FC8
:102E7000330B440B550B29833A834B835C83CA0184
:102E8000B9010E94D71E23E333E343E35FE3698381
:102E90007A838B839C8369817A818B819C810E9458
:102EA0003B1F69837A838B839C8369817A818B81C1
:102EB0009C810E949F1E6093C7018D81082E000C8B
:102EC000990BAA0BBB0B89839A83AB83BC83BC0190
:102ED000CD010E94D71E23E333E343E35FE369831D
:102EE0007A838B839C8369817A818B819C810E9408
:102EF0003B1F69837A838B839C8369817A818B8171
:102F00009C810E949F1E6093C801111624F40E94A8
:102F1000A2158093C9018091C90187FF05C00E9455
:102F2000A21581958093C9019E81191624F40E94EF
:102F3000A2158093CA018091CA0187FF05C00E9433
:102F4000A21581958093CA0126960FB6F894DEBF2C
:102F50000FBECDBFDF91CF911F910C94C2168F3F52
:102F600009F057CF68CF85E0E6ECF1E0DF011D9274
:102F70008A95E9F71092C5011092C40108958091D5
:102F8000EB010895CF93DF9300D00F92CDB7DEB75A
:102F90002091F701243019F523E029838A839B834C
:102FA0002093E9008FEF9091E800815095FD06C0D5
:102FB00095ED9A95F1F700008111F5CF8091E80029
:102FC00085FF0DC050E040E063E070E0CE01019667
:102FD0000E941F1A8091E8008E778093E8000F907E
:102FE0000F900F90DF91CF910895CF93DF9300D092
:102FF0000F92CDB7DEB79C018091F701843031F597
:1030000082E08983205831093B832A8383E08093BF
:10301000E9008FEF9091E800815095FD06C095ED95
:103020009A95F1F700008111F5CF8091E80085FFB6
:103030000DC050E040E063E070E0CE0101960E94D8
:103040001F1A8091E8008E778093E8000F900F9010
:103050000F90DF91CF9108952091F7012430F1F482
:1030600022E02093E9002FEF3091E800215035FD58
:1030700006C035ED3A95F1F700002111F5CF20910A
:10308000E80025FF0BC050E040E065E070E00E94E2
:103090001F1A8091E8008E778093E8000895CF93FF
:1030A000DF93D82FC92F8091F7018430F1F49091EC
:1030B00012019923E9F09091F10197FF19C08093D3
:1030C000E9008FEF9091E800815095FD06C095E1F1
:1030D0009A95F1F700008111F5CF8091E80050E05A
:1030E00040E060E270E085FD1AC0DF91CF91089565
:1030F00081E08093E9008FEF9091E800815095FD89
:1031000006C095ED9A95F1F700008111F5CF8091F9
:10311000E80085FFEACF50E040E068E070E08D2FE6
:103120009C2F0E941F1A8091E8008E778093E80000
:1031300080E2ED2FFC2FABECB1E001900D928A956F
:10314000E1F7D3CF8091F601811109C00E94A71B3E
:103150000E94041C8091E20084608093E200089544
:103160001092F6010895089508950C94311342E0E9
:1031700061EC81E00E94231B42E061EC82E00E944E
:10318000231B42E061EC83E00E94231B42E261ECDE
:1031900084E00C94231B8091F901893089F148F473
:1031A000823009F494C0833009F44FC0813041F07B
:1031B00008958A3009F47BC08B3009F461C008950A
:1031C0008091F801813A09F03FC08091E800877F43
:1031D0008093E8008091FC019091FD01892B61F4BE
:1031E00060E28BEC91E070E00E946E1A8091E80042
:1031F0008B778093E800089560E090E080E0F3CF63
:103200008091F801813201F58091FC019091FD01DE
:10321000009711F00397C1F48091E800877F8093B5
:10322000E8008091E80082FF0BC08091F10080935C
:10323000EB018091E8008B778093E8000C94571B9A
:103240008091F7018111EDCF08958091F801813AC5
:10325000D9F78091FC019091FD01892BA9F780910C
:10326000E800877F8093E8008091E80080FFFCCF32
:10327000809112018093F1008091E8008E77DCCF7D
:103280008091F801813201F78091FC019091FD015C
:10329000892BD1F68091E800877F8093E8000E9417
:1032A000571B8091FA01809312010C94850B809139
:1032B000F801813249F68091E800877F8093E80029
:1032C0000E94571B8091FB018093EC01089580912F
:1032D000F801813A09F0B8CF8091E800877F8093A8
:1032E000E8008091E80080FFFCCF8091EC01C2CF24
:1032F00084B7877F84BF0FB6F894A895809160004B
:10330000886180936000109260000FBE80E8809317
:103310006100109261000E94EC060E94A71B0E94AF
:10332000041C8091E20084608093E20078940E9403
:10333000841E0E94EE0688E091E00E94980680912B
:10334000F701853019F00E94F406F9CF0E94ED12C2
:103350008091F501882399F30E941B13882379F348
:103360000E94091AECCF9C01DA01892F992783303A
:103370009105C1F068F48130910509F445C00297C8
:1033800061F48DE690E02CE132E02D933C930895BA
:1033900081329105E1F0829739F190E080E030E0F0
:1033A00020E0F3CFC9019927213059F082309105EF
:1033B00059F0E8E1F2E0892B81F7849190E09F01D8
:1033C000E4CFE0E0F2E0F9CFECEEF1E0F6CF6430EC
:1033D00020F7E62FF0E0EE0FFF1FEA5DFE4F2081A1
:1033E000318189E090E0D1CF6430B8F670E0FB0124
:1033F000EE0FFF1FE25EFE4F20813181665E7E4F41
:10340000FB01808190E0C1CF82E190E029E832E0C9
:10341000BCCF80E189BD82E189BD09B400FEFDCF4A
:103420008091D8008F7D8093D8008091E0008260E9
:103430008093E0008091E00081FDFCCF0895AF9281
:10344000BF92CF92DF92FF920F931F93CF93DF93A0
:103450006C01EB018A010E94761BF82E811123C0BA
:103460000115110539F0F80180819181C81BD90B34
:10347000C80ED91EB12CA12C2097A9F08091E8008C
:1034800085FD22C08091E8008E778093E8000115C9
:103490001105A1F0F80180819181A80EB91EB182B9
:1034A000A08285E0F82E8F2DDF91CF911F910F9193
:1034B000FF90DF90CF90BF90AF9008950E94761B51
:1034C0008823D1F2F82EEFCFF60181916F0180931E
:1034D000F1002197FFEFAF1ABF0ACECFFC01CB015D
:1034E0002091FE013091FF012617370790F00097D9
:1034F00029F42091E8002E772093E80040E000971F
:1035000051F4411108C08091E80082FF31C080E091
:103510000895C901F3CF2091F7012223A9F12530A5
:10352000A9F12091E80023FD2DC02091E80022FDA3
:10353000EACF2091E80020FFE2CF3091F300209104
:10354000F200009719F02830310558F041E028309A
:10355000310509F040E02091E8002E772093E80043
:10356000CECF41914093F10001972F5F3F4FE9CFBC
:103570008091F701882341F0853041F08091E80087
:1035800083FFC1CF81E0089582E0089583E008952C
:10359000FC01CB012091FE013091FF012617370776
:1035A00090F0009729F42091E8002E772093E8000E
:1035B00040E0009751F4411108C08091E80082FF7B
:1035C00032C080E00895C901F3CF2091F701222392
:1035D000B1F12530B1F12091E80023FD2EC02091FA
:1035E000E80022FDEACF2091E80020FFE2CF3091F1
:1035F000F3002091F200009719F02830310558F0BF
:1036000041E02830310509F040E02091E8002E77B4
:103610002093E800CECF44914093F100319601977A
:103620002F5F3F4FE8CF8091F701882341F085302D
:1036300041F08091E80083FFC0CF81E0089582E0EF
:10364000089583E00895982F973028F08F70809325
:10365000E90081E008959093E900242F762F50E04F
:10366000981731F07091EC002091ED005091F0002E
:1036700021FD02C09F5FE8CF3091EB003E7F309389
:10368000EB003091ED003D7F3093ED003091EB0089
:1036900031603093EB007093EC002093ED00509379
:1036A000F0002091EE0027FDE5CF80E008958091A5
:1036B000F80187FF13C08091E80082FF06C0809167
:1036C000E8008B778093E80004C08091F7018111B6
:1036D000F2CF08958091F7018823D9F38091E80013
:1036E00080FFF8CF8091E8008E77ECCF2091E40046
:1036F0003091E50095E6A9012091EC00822F8170C0
:1037000020FF06C08091E80080FF06C080E0089599
:103710002091E80022FD1AC08091F701882389F0EA
:10372000853089F08091EB0085FD0FC02091E40089
:103730003091E50042175307F9F29150E1F684E029
:10374000089582E0089583E0089581E008950E943D
:10375000151C0E941D1CE0EEF0E0808181608083DA
:10376000E8EDF0E080818F77808319BCA7EDB0E0B1
:103770008C918E7F8C9380818F7E80831092F60156
:1037800008950F931F93CF93DF930E94151C0E94FF
:103790001D1CC8EDD0E088818F7788838881806880
:1037A000888388818F7D888319BC1092F7011092DD
:1037B000F3011092F5011092F40100EE10E0F8010F
:1037C00080818B7F808388818160888342E060E094
:1037D00080E00E94231BE1EEF0E080818E7F8083F9
:1037E000E2EEF0E080818160808380818860808368
:1037F000F80180818E7F8083888180618883DF915A
:10380000CF911F910F910895E8EDF0E080818F7EB8
:103810008083E7EDF0E080818160808384E082BF77
:1038200081E08093F6010C94C11BE8EDF0E080810B
:103830008E7F80831092E20008951092DA00109239
:10384000E10008951F920F920FB60F9211242F934B
:103850003F934F935F936F937F938F939F93AF9318
:10386000BF93EF93FF938091E10082FF0BC08091A3
:10387000E20082FF07C08091E1008B7F8093E1002E
:103880000E94831E8091DA0080FF19C08091D800C9
:1038900080FF15C08091DA008E7F8093DA008091DE
:1038A000D90080FF94C080E189BD82E189BD09B45F
:1038B00000FEFDCF81E08093F7010E94A218809165
:1038C000E10080FF19C08091E20080FF15C0809167
:1038D000E2008E7F8093E2008091E200806180931D
:1038E000E2008091D80080628093D80019BC85E006
:1038F0008093F7010E94B4188091E10084FF29C0F1
:103900008091E20084FF25C080E189BD82E189BD0C
:1039100009B400FEFDCF8091D8008F7D8093D80040
:103920008091E1008F7E8093E1008091E2008F7EA4
:103930008093E2008091E20081608093E2008091B8
:10394000F301882309F449C084E08093F7010E94C1
:10395000B5188091E10083FF29C08091E20083FFC8
:1039600025C08091E100877F8093E10082E0809311
:10397000F7011092F3018091E1008E7F8093E100C6
:103980008091E2008E7F8093E2008091E20080616E
:103990008093E20042E060E080E00E94231B80917F
:1039A000F00088608093F0000E94B318FF91EF91BF
:1039B000BF91AF919F918F917F916F915F914F9147
:1039C0003F912F910F900FBE0F901F90189519BC2B
:1039D0001092F7010E94B01872CF8091E30087FD2A
:1039E00002C081E0B2CF83E0B0CF1F920F920FB63A
:1039F0000F9211242F933F934F935F936F937F9375
:103A00008F939F93AF93BF93CF93DF93EF93FF93E6
:103A1000D091E900DF708091EC00C82FC17080FD6B
:103A2000C0E81092E9008091F000877F8093F00059
:103A300078940E94391D1092E9008091F00088600E
:103A40008093F000CD2BCF70C093E900FF91EF91F0
:103A5000DF91CF91BF91AF919F918F917F916F91A6
:103A60005F914F913F912F910F900FBE0F901F903C
:103A700018951F93CF93DF93CDB7DEB7AA970FB6F4
:103A8000F894DEBF0FBECDBF88EF91E0FC01019638
:103A90002091F100208322E080309207B9F70E9444
:103AA000CB188091E80083FF16C18091F8019091B6
:103AB000F9019A3008F00FC1E92FF0E0E85AFF4D04
:103AC0000C94E41F803881F0823809F004C18091A1
:103AD000FC018F708093E9008091EB0085FB8827C3
:103AE00080F91092E90006C08091F4019091F501EF
:103AF000911182609091E800977F9093E800809305
:103B0000F1001092F1008091E8008E77E0C08823E8
:103B100009F4CEC0823009F0DEC08091FA01811133
:103B2000D1C08091FC018F7009F4D5C08093E90069
:103B30002091EB0020FFC6C0933031F48091EB0060
:103B400080628093EB00BEC09091EB0090619093F7
:103B5000EB0021E030E001C0220F8A95EAF72093C4
:103B6000EA001092EA008091EB008860EACF8111B0
:103B7000B2C01091FA011F778091E3008078812B09
:103B80008093E3008091E800877F8093E8000E94A3
:103B9000571B8091E80080FFFCCF8091E300806894
:103BA0008093E30082E0111183E08093F70193C0DA
:103BB0008058823008F08FC08091FA019091FB010B
:103BC0008C3D23E09207A1F583E08A838AE2898312
:103BD0004FB7F894DE01139620E03EE051E2E32F68
:103BE000F0E050935700E49120FF03C0E295EF709E
:103BF0003F5FEF708E2F90E0EA30C0F0C7968D9354
:103C00009D932F5F243159F74FBF8091E800877F44
:103C10008093E8006AE270E0CE0101960E946E1A7D
:103C20008091E8008B778093E80055C0C096E7CF7D
:103C3000AE014F5F5F4F6091FC010E94B319BC0160
:103C4000892B09F448C08091E800877F8093E800C1
:103C500089819A810E94C81AE3CF8038E1F580916A
:103C6000E800877F8093E8008091F3018093F10062
:103C70004ACF811130C09091FA01923060F5809165
:103C8000E800877F8093E8009093F3010E94571B20
:103C90008091F301882311F084E005C08091E30056
:103CA00087FDFACF81E08093F7010E94B71813C017
:103CB0008091FA01813079F481E0933009F080E05D
:103CC0008093F5011092E9008091E800877F80934E
:103CD000E8000E94571B8091E80083FF0AC0809192
:103CE000E800877F8093E8008091EB0080628093FA
:103CF000EB00AA960FB6F894DEBF0FBECDBFDF91E2
:103D0000CF911F9108950895CF938091F701882353
:103D1000A1F0C091E900CF709091EC00892F8170E3
:103D200090FD80E8C82B1092E9008091E80083FDA7
:103D30000E94391DCF70C093E900CF9108950E9471
:103D4000A61E6894B1110C94351F08950E941A1F85
:103D500088F09F5798F0B92F9927B751B0F0E1F04C
:103D6000660F771F881F991F1AF0BA95C9F714C0FC
:103D7000B13091F00E94341FB1E008950C94341FCB
:103D8000672F782F8827B85F39F0B93FCCF3869535
:103D900077956795B395D9F73EF490958095709592
:103DA00061957F4F8F4F9F4F0895E89409C097FB0F
:103DB0003EF490958095709561957F4F8F4F9F4F02
:103DC0009923A9F0F92F96E9BB279395F695879546
:103DD00077956795B795F111F8CFFAF4BB0F11F409
:103DE00060FF1BC06F5F7F4F8F4F9F4F16C08823B0
:103DF00011F096E911C0772321F09EE8872F762FE6
:103E000005C0662371F096E8862F70E060E02AF026
:103E10009A95660F771F881FDAF7880F9695879512
:103E200097F9089557FD9058440F551F59F05F3F7B
:103E300071F04795880F97FB991F61F09F3F79F0CC
:103E400087950895121613061406551FF2CF46954E
:103E5000F1DF08C0161617061806991FF1CF8695D0
:103E60007105610508940895E894BB2766277727B4
:103E7000CB0197F908950E944E1F0C94BF1F0E941A
:103E8000B11F38F00E94B81F20F0952311F00C9458
:103E9000A81F0C94AE1F11240C94351F0E94121FF2
:103EA00070F3959FC1F3950F50E0551F629FF0018D
:103EB000729FBB27F00DB11D639FAA27F00DB11DA6
:103EC000AA1F649F6627B00DA11D661F829F22272F
:103ED000B00DA11D621F739FB00DA11D621F839FB6
:103EE000A00D611D221F749F3327A00D611D231F8C
:103EF000849F600D211D822F762F6A2F11249F57DA
:103F000050409AF0F1F088234AF0EE0FFF1FBB1FDC
:103F1000661F771F881F91505040A9F79E3F51059B
:103F200080F00C94A81F0C94351F5F3FE4F3983E7B
:103F3000D4F3869577956795B795F795E7959F5F45
:103F4000C1F7FE2B880F911D9695879597F90895D7
:103F500097F99F6780E870E060E008959FEF80EC3C
:103F6000089500240A9416161706180609060895DF
:103F700000240A9412161306140605060895092E45
:103F80000394000C11F4882352F0BB0F40F4BF2BB4
:103F900011F460FF04C06F5F7F4F8F4F9F4F0895F4
:103FA00097FB072E16F4009407D077FD09D00E94E6
:103FB000EA1F07FC05D03EF4909581959F4F089528
:103FC000709561957F4F0895EE0FFF1F0590F49156
:103FD000E02D0994AA1BBB1B51E107C0AA1FBB1F00
:103FE000A617B70710F0A61BB70B881F991F5A9585
:103FF000A9F780959095BC01CD010895F999FECF60
:1040000092BD81BDF89A992780B50895A8E1B0E0E6
:1040100042E050E00C942620262FF999FECF92BD65
:1040200081BDF89A019700B4021639F01FBA20BD7D
:104030000FB6F894FA9AF99A0FBE08950196272FB1
:104040000E940D200C940C20DC01CB01FC01F9999D
:10405000FECF06C0F2BDE1BDF89A319600B40D92D4
:1040600041505040B8F70895F894FFCFCE02DA02DD
:10407000DE02E202E602EA02EE02F202F602FA02D0
:10408000FE02020306030A030E03120316031A03B9
:104090003009300988098809CC09E80960096009F4
:1040A000F3096009BB0ABB0A260B600960092F0BE4
:1040B000621D871D6B1E871D6B1EB71DD81D6B1ED5
:0440C0002D1E391E5A
:1040C4009D012808140A321EBF174F182C18F51723
:1040D400C217019091929394F0F1404D36395703F1
:0E40E4000A03D4029B022E02470260027902F8
:00000001FF
